:100000000C949D040C94CE040C94CE040C94CE0459
:100010000C94CE040C94CE040C94CE040C94CE0418
:100020000C94CE040C94CE040C94CE040C94CE0408
:100030000C94CE040C94CE040C94CE040C94CE04F8
:100040000C94CE040C94CE040C94CE040C94CE04E8
:100050000C94CE040C94CE040C94CE040C94DF0DBE
:100060000C94CE040C94530E0C94290E0C94CE04D4
:100070000C94CE040C94CE040C94CE040C94CE04B8
:100080000C94CE040C94CE040C94CE040C94CE04A8
:100090000C94CE040C94CE040C94CE040C94CE0498
:1000A0000C94CE040C94CE040C94CE040C94CE0488
:1000B0000C94CE040C94CE040C94CE040C94CE0478
:1000C0000C94CE040C94CE040C94CE040C94CE0468
:1000D0000C94CE040C94CE040C94CE040C94CE0458
:1000E0000C94CE040C94890E0C944E060C94D011F2
:1000F0000C943F070C94F1040C9410050C943205F9
:100100000C940C050C942C060C941D060C9487146E
:100110000C9440060C9403050C94FB040C943105DC
:100120000C94F0050C94DA0A0C94770A0C94FD13E5
:100130000C942C050C9428050C94FF040C94F704E3
:100140000C9486060C9424050C9406050C94160554
:100150000C94EE060C941A050C9436050C941E05AE
:10016000556E6B6E6F776E206572726F72004120F4
:100170004D494641524520504943432072657370B2
:100180006F6E6465642077697468204E414B2E0061
:10019000546865204352435F4120646F6573206E4D
:1001A0006F74206D617463682E00496E76616C69AE
:1001B0006420617267756D656E742E00496E74659A
:1001C000726E616C206572726F7220696E20746845
:1001D0006520636F64652E2053686F756C64206EB4
:1001E0006F742068617070656E2E004120627566C4
:1001F000666572206973206E6F742062696720657E
:100200006E6F7567682E0054696D656F757420692F
:100210006E20636F6D6D756E69636174696F6E2EAC
:1002200000436F6C6C6973696F6E206465746563FD
:100230007465642E004572726F7220696E20636F60
:100240006D6D756E69636174696F6E2E00537563B1
:10025000636573732E00506C656173652C206D614E
:100260006B65207375726520746865205243353262
:100270003220697320636F6E6E65637465642E2E21
:100280002E005741524E494E473A20436F6D6D75CF
:100290006E69636174696F6E206661696C75726501
:1002A0002021002D2D2D2D2D2D2D2D2D2D2D2D2DC4
:1002B0002D2D2D2D2D2D2D2D2D2D2D2D2D2D2D2D6E
:1002C0002D2D2D2D2D2D2D2D2D2D002028556E6BF6
:1002D0006E6F776E2900203D2076322E3000203D53
:1002E0002076312E30005243353232204669726D0D
:1002F000776172652056657273696F6E203A20309F
:10030000780000EB66BA57BF2395D0E30D3D2789EF
:100310005CDE9D3BA700215B8982513AEB020CA574
:1003200000497C844DB3CCD21B815D4876D5716188
:1003300021A986968338CF9D5B6DDC15BA3E7D95ED
:100340003B2F00C637D532B7575CC2D87C4DD97029
:10035000C77310E6D2AA5EA13E5A14AF3061C970CD
:10036000DB2E642272B5BD65F4EC22BCD37235CDB0
:10037000AA411FA7F35314DE7E02D90FB55E251DD7
:1003800029790087980F49FF0719BF22304959631F
:10039000ADCA7FE34E035C4E4950479A3761E7E2AE
:1003A000C62E755AED043D024B7832FF583B7CE96E
:1003B0000094B44A595BFDC929DF3596989E4F30A9
:1003C000328D00D6788CE2AA0C182AB87A7FD36ACC
:1003D000CF0BB137634B69AE91C7C397AE77F43794
:1003E000D79B7CF53C118F15C3D7C15B002AD07514
:1003F000DE9E5164AB3EE915B5AB569A988226EA6B
:100400002A622D2D2D2D2D2D2D2D2D2D2D2D2D2DEA
:100410002D2D2D2D2D2D2D2D2D2D2D2D2D2D2D2D0C
:100420002D2D2D2D2D2D2D2D2D0A005B4E6F742081
:10043000636F6E6E65637465645D206F72205B44EC
:1004400065666563745D0052433532322E2E2E2070
:10045000002D2D2D2D2D2D2D2D2D2D2D2D2D2D2DF9
:100460002D2D2D2D2D2D2D2D2D2D2D2D2D2D2D2DBC
:100470002D2D2D2D2D2D2D2D005B4661696C656474
:100480005D002D2D2D2D2D2D2D2D2D2D2D2D2D2D99
:100490002D2D2D2D2D2D2D2D2D2D2D2D2D2D2D2D8C
:1004A0002D2D2D2D2D2D2D2D2D0A005B4F4B5D005B
:1004B00052433532322E2E2E20002D2D2D2D2D2D56
:1004C0002D2D2D2D2D2D2D2D2D2D2D2D2D2D2D2D5C
:1004D0002D2D2D2D2D2D2D2D2D2D2D2D2D2D2D2D4C
:1004E0002D005B446F6E655D005465737420696E0A
:1004F0002070726F67726573732E2E2E20002D2D63
:100500002D2D2D2D2D2D2D2D2D2D2D2D2D2D2D2D1B
:100510002D2D2D2D2D2D2D2D2D2D2D2D2D2D2D2D0B
:100520002D2D2D2D2D003D3D3D3D3D3D3D3D3D3D88
:100530003D3D3D3D3D3D3D3D3D3D3D3D3D3D3D3DEB
:100540003D3D3D3D3D3D3D3D3D3D3D3D3D0A003D4B
:100550003D202020202020202020205243353232F0
:100560002053454C46205445535420202020202021
:10057000202020203D3D003D3D3D3D3D3D3D3D3D5C
:100580003D3D3D3D3D3D3D3D3D3D3D3D3D3D3D3D9B
:100590003D3D3D3D3D3D3D3D3D3D3D3D3D3D0020E5
:1005A0000020300020200020002020004D4946413E
:1005B00052455F526561642829206661696C6564F3
:1005C0003A20005061676520203020203120203201
:1005D00020203300204164723D3078002056616C49
:1005E00075653D30780020496E76657274656420CB
:1005F0006163636573732062697473206469642046
:100600006E6F74206D61746368212000205D20008E
:1006100020002000205B2000200020002030004D22
:1006200049464152455F52656164282920666169E7
:100630006C65643A20005043445F41757468656E90
:100640007469636174652829206661696C65643A20
:10065000200020200020002020002020200020203A
:1006600020202020200020202000202000202020EA
:1006700000536563746F7220426C6F636B2020209F
:100680003020203120203220203320202034202010
:1006900035202036202037202020382020392031D6
:1006A000302031312020313220313320313420319B
:1006B0003520204163636573734269747300556E1E
:1006C0006B6E6F776E20747970650053414B2069B3
:1006D0006E646963617465732055494420697320B1
:1006E0006E6F7420636F6D706C6574652E004D497C
:1006F0004641524520544E5033585858004D4946B3
:100700004152452044455346697265004D49464172
:10071000524520506C7573004D4946415245205555
:100720006C7472616C69676874206F7220556C74A8
:1007300072616C696768742043004D4946415245B7
:1007400020344B42004D494641524520314B420036
:100750004D4946415245204D696E692C2033323057
:10076000206279746573005049434320636F6D7054
:100770006C69616E7420776974682049534F2F4902
:10078000454320313830393220284E464329005025
:1007900049434320636F6D706C69616E74207769A3
:1007A00074682049534F2F49454320313434343342
:1007B0002D34005049434320747970653A2000304D
:1007C00000436172642053414B3A200020002030E6
:1007D0000043617264205549443A0044756D706964
:1007E0006E67206D656D6F727920636F6E74656ED4
:1007F0007473206E6F7420696D706C656D656E74B6
:10080000656420666F7220746861742050494343A8
:1008100020747970652E0000002100240027002A32
:10082000002D003000330001010000040107010A1F
:100830000100002200250028002B002E003100348A
:100840000002010000050108010B01000020002347
:1008500000260029002C002F0032000001000003B8
:100860000106010901050505050705080808080234
:100870000202020A0A080804040404010101010139
:100880000101010303030303030303040707070C28
:100890000C0C0C0C0C0C0C020202020606060606DE
:1008A0000606060B0B0B0B0B0B0B0B01021020208B
:1008B00008081020401020408002010201080402B4
:1008C000010102040810204080804020100804022A
:1008D0000180040201804020100804020108040283
:1008E0000101020408102040800102040810204089
:1008F0008000000A0B02090C0D0E0807030401001A
:1009000000000000000000000000000000000000E7
:1009100000000000000000000000000000121110A4
:1009200000000000000000000000000000000000C7
:100930000000000000000000890E11241FBECFEF50
:10094000D1E2DEBFCDBF00E00CBF23E0A6EEB2E0F7
:1009500001C01D92A13AB207E1F712E0A0E0B2E0B7
:10096000E0E7FEE200E00BBF02C007900D92A63E5A
:10097000B107D9F714E0CDE9D4E000E006C0219733
:100980000109802FFE010E94F814CC39D10780E0C4
:100990000807A9F70E94C00E0C9436170C940000AB
:1009A0008CBD9DBD08958150823108F05AC0E82F5A
:1009B000F0E08827E152FB4F8F4F0C94F814FF04AE
:1009C0000305F104F704FB04310506050C051005C9
:1009D00016051A051E052405280531052C053205C6
:1009E0003605809180008F778093800008958091F4
:1009F00080008F7DF9CF80918000877FF5CF84B50F
:100A00008F7784BD089584B58F7DFBCF8091B00032
:100A10008F778093B00008958091B0008F7DF9CFDB
:100A2000809190008F77809390000895809190003E
:100A30008F7DF9CF80919000877FF5CF8091A000C6
:100A40008F778093A00008958091A0008F7DF9CFCB
:100A50008091A000877FF5CF809120018F778093D0
:100A600020010895809120018F7DF9CF8091200190
:100A7000877FF5CF1F93CF93DF93282F30E0F901C5
:100A8000EF50F74F8491F901E555F74FD491F901F3
:100A9000EB59F74FC491CC23A9F0162F81110E9476
:100AA000D304EC2FF0E0EE0FFF1FEF5CF74FA591A2
:100AB000B4918FB7F894EC91111108C0D095DE2352
:100AC000DC938FBFDF91CF911F910895DE2BF8CF7C
:100AD000CF93DF9390E0FC01E555F74F24918B59BC
:100AE000974FFC0184918823D1F090E0880F991FE3
:100AF000FC01E95EF74FA591B491FC01EF5CF74F63
:100B0000C591D49161110EC09FB7F8948C91E22FDA
:100B1000E0958E238C932881E223E8839FBFDF91A9
:100B2000CF9108958FB7F894EC91E22BEC938FBF9F
:100B3000F6CF3FB7F8948091EC029091ED02A0912E
:100B4000EE02B091EF0226B5A89B05C02F3F19F029
:100B50000196A11DB11D3FBFBA2FA92F982F88273D
:100B6000BC01CD01620F711D811D911D42E0660F18
:100B7000771F881F991F4A95D1F708958F929F92EA
:100B8000AF92BF92CF92DF92EF92FF924B015C0146
:100B90000E9499056B017C010E9499056C197D09E1
:100BA0008E099F09683E734081059105A8F321E0F5
:100BB000821A9108A108B10888EEC80E83E0D81EF9
:100BC000E11CF11C81149104A104B10429F7FF90E8
:100BD000EF90DF90CF90BF90AF909F908F9008954F
:100BE000AF92BF92CF92DF92EF92FF920F931F933B
:100BF000CF93DF936C017B018B01040F151FEB0179
:100C00005E01AE18BF08C017D10759F06991D6012F
:100C1000ED91FC910190F081E02DC6011995892B91
:100C200079F7C501DF91CF911F910F91FF90EF9060
:100C3000DF90CF90BF90AF900895FC01538D448D0D
:100C4000252F30E0842F90E0821B930B541710F077
:100C5000CF96089501970895FC01918D828D981784
:100C600061F0A28DAE0FBF2FB11D5D968C91928D5C
:100C70009F5F9F73928F90E008958FEF9FEF08958D
:100C8000FC01918D828D981731F0828DE80FF11D56
:100C9000858D90E008958FEF9FEF0895FC01918D71
:100CA000228D892F90E0805C9F4F821B91098F736A
:100CB0009927089580EF92E00E944E0621E0892B4B
:100CC00009F420E0822F0895FC01A48DA80FB92F0C
:100CD000B11DA35ABF4F2C91848D90E001968F7364
:100CE0009927848FA689B7892C93A089B1898C9183
:100CF000837080648C93938D848D981306C00288D2
:100D0000F389E02D80818F7D80830895EF92FF929B
:100D10000F931F93CF93DF93EC0181E0888F9B8D1E
:100D20008C8D98131AC0E889F989808185FF15C0D8
:100D30009FB7F894EE89FF896083E889F9898081FB
:100D40008370806480839FBF81E090E0DF91CF91CA
:100D50001F910F91FF90EF900895F62E0B8D10E0EC
:100D60000F5F1F4F0F731127E02E8C8D8E110CC05B
:100D70000FB607FCFACFE889F989808185FFF5CFA6
:100D8000CE010E946406F1CFEB8DEC0FFD2FF11D1B
:100D9000E35AFF4FF0829FB7F8940B8FEA89FB89E3
:100DA00080818062CFCF0F931F93CF93DF938C010D
:100DB000D0E0C0E0F801EC0FFD1F6491662341F024
:100DC00080EF92E00E948606892B11F02196F2CFE7
:100DD000CE01DF91CF911F910F910895CF93DF93B3
:100DE000EC01888D8823B9F0AA89BB89E889F98943
:100DF0008C9185FD03C0808186FD0DC00FB607FC78
:100E0000F7CF8C9185FFF2CF808185FFEDCFCE01AA
:100E10000E946406E9CFDF91CF91089580E090E0D1
:100E2000892B29F00E945A0681110E94000080E05F
:100E300090E0892B49F080E090E0892B29F00E9416
:100E4000000081110E94000080E090E0892B49F0B1
:100E500080E090E0892B29F00E94000081110E941F
:100E6000000080E090E0892B49F080E090E0892B41
:100E700029F00E94000081110C9400000895BC012B
:100E80006E5F7F4FDC01ED91FC910190F081E02DD0
:100E900040E0199591E0811190E0892F0895843008
:100EA000F1F050F4813091F030F1823091F08330E4
:100EB00099F080E691E008958630B9F098F0873097
:100EC000B9F08F3FB1F78EE691E0089585E392E0A7
:100ED000089581E292E0089587E092E008958BEE14
:100EE00091E008958CEB91E008958AEA91E00895ED
:100EF00080E991E008958DE492E0089508958EBD13
:100F000000000DB407FEFDCF8EB50895DF92EF927D
:100F1000FF920F931F93CF93DF937C01D62EEA01AC
:100F2000122F80E590E00E94D00460E0F7018685F2
:100F30000E943A05DA9482E90E947F071123A1F00A
:100F40008FEF90E09C0102C0220F331F1A95E2F749
:100F5000890182E90E947F07902F90952881922332
:100F60008023892B888311E0C10FD11D1D1530F41A
:100F700082E90E947F0789931F5FF8CF80E00E947B
:100F80007F07888361E0F7018685DF91CF911F910C
:100F90000F91FF90EF90DF900C943A05DF92EF9263
:100FA000FF920F931F93CF93DF937C01062FD42ED4
:100FB000152F80E590E00E94D00460E0F70186855F
:100FC0000E943A0582E10E947F07CD2DD12F0C0FA0
:100FD0001D2F111DC017D10721F089910E947F0795
:100FE000F9CF61E0F7018685DF91CF911F910F91D5
:100FF000FF90EF90DF900C943A051F93CF93DF930F
:10100000EC01162F80E590E00E94D00460E08E8510
:101010000E943A05812F80680E947F0780E00E942D
:101020007F07182F61E08E850E943A05812FDF919E
:10103000CF911F9108950F931F93CF93DF93EC01EE
:10104000062F142F80E590E00E94D00460E08E858A
:101050000E943A05802F0E947F07812F0E947F0700
:1010600061E08E85DF91CF911F910F910C943A052D
:10107000CF934FE062E08DE893E00E941B08C3E04D
:1010800062E370E080E090E00E94BE0562E08DE8DF
:1010900093E00E94FD0784FF02C0C15089F7CF9101
:1010A0000895CF93DF9361E080919B030E946805D0
:1010B00061E080919B030E943A0580919C038F3FE1
:1010C00009F484C060E00E94680520919C0330E030
:1010D000F901EF50F74F8491F901E555F74FD4919D
:1010E000F901EB59F74FC491C11161C061E08091E2
:1010F0009C030E94680560E080919C030E943A0571
:1011000083E090E00197F1F761E080919C030E94F9
:101110003A0562E370E080E090E00E94BE0540E0A6
:1011200064E28DE893E00E941B0840E066E28DE8EF
:1011300093E00E941B0846E268E48DE893E00E9479
:101140001B0840E864E58DE893E00E941B0849EA2B
:1011500066E58DE893E00E941B0843E068E58DE8B2
:1011600093E00E941B0848EE6AE58DE893E00E9438
:101170001B0840E46AE28DE893E00E941B084DE3FF
:1011800062E28DE893E00E941B0868E28DE893E03C
:101190000E94FD07982F93709330D9F0482F436039
:1011A00068E28DE893E0DF91CF910C941B088111E8
:1011B0000E94D304EC2FF0E0EE0FFF1FE55BF74F2A
:1011C000A591B491EC91ED2309F490CF0E943808D9
:1011D000A6CFDF91CF910895CF92DF92EF92FF9249
:1011E0000F931F93CF93DF93EC016B01142F7901C1
:1011F00040E062E00E941B0844E06AE0CE010E94E9
:101200001B0840E864E1CE010E941B08A601612F83
:10121000CE010E94CE0743E062E0CE010E941B088F
:1012200008E813E16AE0CE010E94FD0782FF1BC0BF
:1012300040E062E0CE010E941B0864E4CE010E94FF
:10124000FD07F701808362E4CE010E94FD07F701EC
:10125000818380E0DF91CF911F910F91FF90EF90FC
:10126000DF90CF90089501501109E1F683E0F2CFAD
:101270003F924F925F926F927F928F929F92AF9226
:10128000BF92CF92DF92EF92FF920F931F93CF9373
:10129000DF931F921F92CDB7DEB73C01162F942E1D
:1012A000290180E0A114B10411F0F5018081382CEE
:1012B000329490EF3922380E40E062E0C3010E9480
:1012C0001B084FE768E0C3010E941B0840E864E187
:1012D000C3010E941B08A201602FC3010E94CE0718
:1012E000432D6AE1C3010E941B08412F62E0C30144
:1012F0000E941B081C3051F46AE1C3010E94FD07E3
:10130000482F40686AE1C3010E941B0800ED17E006
:1013100068E0C3010E94FD07982F992109F07DC064
:1013200080FD03C00150110999F783E05CC0E1140E
:10133000F104B1F1C114D10499F164E1C3010E9437
:10134000FD07F6019081981708F461C08083882317
:1013500031F0282DA701682FC3010E94860768E19C
:10136000C3010E94FD078770A114B10411F0F501BB
:10137000808313FD4EC0E114F10409F44CC0C11484
:10138000D10409F448C09F89992309F444C0F601A7
:101390004081413039F4843009F049C08FEF23C0D7
:1013A00080E0E7CF423008F442C0811140C0425093
:1013B0009E012F5F3F4FB701C3010E94EC088111CE
:1013C00012C0F6019081E90EF11CF70132972081DD
:1013D000998129132CC0F1E0EF1AF108F70120815F
:1013E0009A81291324C00F900F90DF91CF911F9104
:1013F0000F91FF90EF90DF90CF90BF90AF909F90B4
:101400008F907F906F905F904F903F90089584E011
:10141000EACF82E0E8CF80E0E6CF6CE0C3010E9433
:10142000FD07182F837109F482CF81E0DCCF87E0BC
:10143000DACF8F92AF92BF92CF92DF92EF92FF926C
:101440000F931F93CF93DF9300D01F92CDB7DEB7DA
:1014500080E589831A829E012D5F3F4F42E0BE01E5
:101460006F5F7F4F8DE893E00E94EC08182F811189
:1014700019C01F92812CB12CA12CD12CC12CF12C84
:10148000E12C04E09E012F5F3F4F40E36CE08DE8CC
:1014900093E00E9438090F90833021F0182F8111BA
:1014A00001C011E0812F0F900F900F900F90DF91EE
:1014B000CF911F910F91FF90EF90DF90CF90BF9051
:1014C000AF908F9008950F931F93CF93DF938C016C
:1014D000D62FC42F0E94FD07C0954C2F48236D2F97
:1014E000C801DF91CF911F910F910C941B086F924F
:1014F0007F928F92AF92BF92CF92DF92EF92FF9244
:101500000F93CF93DF9300D01F921F92CDB7DEB71A
:101510003C0182E08D8340E064E2C3010E941B082D
:1015200040E066E2C3010E941B0846E268E4C30192
:101530000E941B0886E28B838D818230C8F140E8CF
:101540006CE1C3010E94630A87E08C831F92812CA7
:10155000CE0104965C0101966C0104977C0101E0C8
:101560009E012D5F3F4F40E36CE0C3010E943809AC
:10157000982F0F90811119C08D818230C9F48C8110
:10158000811116C081E00F900F900F900F900F9077
:10159000DF91CF910F91FF90EF90DF90CF90BF90B0
:1015A000AF908F907F906F90089581E0923059F3C3
:1015B00080E0E9CF2F923F924F925F926F927F929D
:1015C0008F929F92AF92BF92CF92DF92EF92FF9253
:1015D0000F931F93CF93DF93CDB7DEB72E970FB640
:1015E000F894DEBF0FBECDBF06E0413508F046C11E
:1015F0004E873B012C0140E86CE10E94630A83E9BD
:1016000089832E85222329F081E0F3019081953092
:1016100008F480E0992493941C869C85990F990F77
:10162000990F1E85191B17FD10E032E0882319F071
:1016300098E89B8333E021E0912F977009F420E034
:10164000912F959595959595290FD1F094E081115D
:1016500093E0291708F4922F2C85E22FF0E03196C1
:10166000E60DF71D232F4191A1E0B0E0AC0FBD1FA7
:10167000A20FB11D4C932F5F422F431B491798F3C4
:101680008111185F10320CF484C080E78A838B814B
:101690009C8189279D8189279E8189278F839E012F
:1016A000285F3F4F47E0BE016F5F7F4FC2010E943E
:1016B000EC08082F8111E2C01A8693E09B871D87F2
:1016C000FE0137961F0109E08A84482D4295407F2C
:1016D000480D6AE1C2010E941B081F92CE010A96C2
:1016E0005C01FE013B966F0171019E012F5F3F4F30
:1016F00040E36CE0C2010E943809082F0F9082304D
:1017000009F065C06CE1C2010E94FD0785FDB6C00D
:101710008F7109F480E2282F30E0412F110F550B13
:10172000421753070CF09EC0182FE22FE595E59560
:10173000E595EF5F922F977081E009F480E0E80F64
:1017400081E090E08C0F9D1F8E0F911DFC012150B8
:1017500031092770332781E090E002C0880F991F7C
:101760002A95E2F79C018081822B80838BCF85E9CB
:101770008983FE85FF2331F081E0F3019081983069
:1017800008F04BCF80E049CF87E98983F6E0FC87FA
:10179000F9CF912F97709A87812F8595859585959B
:1017A0008E5F282F2295207F290F2A8301E0911137
:1017B00001C000E0080F22242394312C2C0E3D1E82
:1017C000280E311CF9E0F81BFB871D877DCF8111A6
:1017D00055C010E29D8590320CF457CF8B8188382C
:1017E00009F042C083E093E02C85E22FF0E03196CF
:1017F000E60DF71D980FA1E0B0E0AC0FBD1FA80FDC
:10180000B11D2C9121938F5F8913F5CF8B858C8728
:10181000833009F04DC08A8581114AC09E012D5F39
:101820003F4F41E0B101C2010E94EC08082F811135
:1018300025C09B81F101818198133CC09C818281EC
:10184000981338C0808182FF12C09394F2E09F16F3
:1018500009F48DCF23E0921609F496CF81E0981613
:1018600009F4CDCE05E00AC082E094E0BDCFF301DB
:101870008387892D880F980E93949082802F2E96BF
:101880000FB6F894DEBF0FBECDBFDF91CF911F9191
:101890000F91FF90EF90DF90CF90BF90AF909F900F
:1018A0008F907F906F905F904F903F902F90089512
:1018B00001E0E4CF07E0E2CFFC0101900020E9F76E
:1018C0003197AF01481B590BBC0180EF92E00C949B
:1018D000F00583E692E00C945C0CCF93DF930E94BA
:1018E000D306EC010E94690C8C0F9D1FDF91CF91F4
:1018F00008958F929F92AF92BF920F931F93CF93B1
:10190000DF93CDB7DEB7A1970FB6F894DEBF0FBE59
:10191000CDBF19A2423008F44AE08E010F5D1F4F7F
:10192000842E912CB12CA12CA50194010E94D614D7
:10193000E62FB901CA01EA30F4F4E05DD801EE9374
:101940008D01232B242B252B79F790E080E0109735
:1019500019F0CD010E945C0CA1960FB6F894DEBF81
:101960000FBECDBFDF91CF911F910F91BF90AF9070
:101970009F908F900895E95CE1CFBC01990F880B8F
:10198000990B4AE00C94790C0F931F93CF93DF933C
:10199000EC0188819981009759F02A813B812617B3
:1019A000370730F081E0DF91CF911F910F910895BB
:1019B0008B016F5F7F4F0E944516009759F0998306
:1019C00088831B830A832C813D81232B59F7FC01DB
:1019D0001082E8CF80E0E7CFCF93DF93EC018881DE
:1019E0009981009711F00E94BC15198218821D82FE
:1019F0001C821B821A82DF91CF9108950F931F934F
:101A0000CF93DF93EC010C811D810F5F1F4FB80155
:101A10000E94C40C882391F0288139818C819D819A
:101A200064EE72E0820F931F0E942F171D830C83B8
:101A3000CE01DF91CF911F910F910895CE010E94A9
:101A4000EC0CF6CFEF92FF920F931F93CF93DF939F
:101A5000EC01198218821B821A821D821C82861751
:101A6000970719F1FB010081118101151105E9F0BA
:101A7000E480F580B7010E94C40C811109C0CE0139
:101A8000DF91CF911F910F91FF90EF900C94EC0C90
:101A9000FD82EC82B80188819981DF91CF911F91FD
:101AA0000F91FF90EF900C942F17DF91CF911F9122
:101AB0000F91FF90EF900895CF92DF92EF92FF92F7
:101AC0000F931F93CF93DF9300D000D000D0CDB7FA
:101AD000DEB78C01862FF8011182108213821282E8
:101AE000158214824AE09E012F5F3F4F6901B901C0
:101AF00090E00E948A14F60101900020E9F73197E6
:101B00007F01EC18FD08B701C8010E94C40C8111C7
:101B100012C0C8010E94EC0C29960FB6F894DEBFE3
:101B20000FBECDBFDF91CF911F910F91FF90EF902E
:101B3000DF90CF900895F801F582E482B6018081AC
:101B400091810E942F17E8CFEF92FF920F931F937E
:101B5000CF93DF93EC01FB01E080F180E114F1040D
:101B600011F10481158101151105A9F08C819D8168
:101B7000080F191FB801CE010E94C40C882399F0E8
:101B8000288139818C819D81B701820F931F0E942A
:101B90002F171D830C83CE01DF91CF911F910F91E1
:101BA000FF90EF900895CE010E94EC0CF4CFFC0161
:101BB00080819181009711F00C94BC1508951F92BB
:101BC0000F920FB60F9211242F933F938F939F93F1
:101BD000AF93BF938091E8029091E902A091EA024D
:101BE000B091EB023091E70223E0230F2D3758F537
:101BF0000196A11DB11D2093E7028093E802909306
:101C0000E902A093EA02B093EB028091EC0290917A
:101C1000ED02A091EE02B091EF020196A11DB11D5F
:101C20008093EC029093ED02A093EE02B093EF024A
:101C3000BF91AF919F918F913F912F910F900FBEC8
:101C40000F901F90189526E8230F0296A11DB11D35
:101C5000D2CF1F920F920FB60F9211240BB60F9294
:101C60002F933F934F935F936F937F938F939F93A4
:101C7000AF93BF93EF93FF9380EF92E00E946406CF
:101C8000FF91EF91BF91AF919F918F917F916F9154
:101C90005F914F913F912F910F900BBE0F900FBE10
:101CA0000F901F9018951F920F920FB60F9211244C
:101CB0000BB60F922F938F939F93EF93FF93E09127
:101CC0000003F09101038081E0910603F091070386
:101CD00082FD1DC09081809109038F5F8F732091D9
:101CE0000A03821741F0E0910903F0E0E051FD4F53
:101CF000958F80930903FF91EF919F918F912F9181
:101D00000F900BBE0F900FBE0F901F901895808103
:101D1000F2CFE0EFF2E01382128288EE93E0A0E0CF
:101D2000B0E084839583A683B7838BE492E09183AC
:101D3000808385EC90E09587848784EC90E097879A
:101D4000868780EC90E0918B808B81EC90E0938B88
:101D5000828B82EC90E0958B848B86EC90E0978B65
:101D6000868B118E128E138E148EEDE8F3E08DE5C6
:101D700092E09183808385E3868785E08787089555
:101D8000CF93DF93CDB7DEB7CD57D1090FB6F89417
:101D9000DEBF0FBECDBF789484B5826084BD84B5AC
:101DA000816084BD85B5826085BD85B5816085BD56
:101DB00080916E00816080936E001092810080910E
:101DC0008100826080938100809181008160809396
:101DD0008100809180008160809380008091B100BB
:101DE00084608093B1008091B00081608093B000E6
:101DF0008091910082608093910080919100816038
:101E000080939100809190008160809390008091F8
:101E1000A10082608093A1008091A10081608093E5
:101E2000A1008091A00081608093A0008091210199
:101E30008260809321018091210181608093210142
:101E40008091200181608093200180917A008460DC
:101E500080937A0080917A00826080937A008091EA
:101E60007A00816080937A0080917A008068809304
:101E70007A001092C100E0910003F091010382E02A
:101E80008083E091FC02F091FD021082E091FE025D
:101E9000F091FF0280E1808310920803E091040337
:101EA000F091050386E08083E0910203F091030343
:101EB000808180618083E0910203F091030380813F
:101EC00088608083E0910203F09103038081806841
:101ED0008083E0910203F091030380818F7D8083F2
:101EE00086E692E00E945C0C0E94690C1FB7F89491
:101EF0008091E602811127C0EAE9F8E08491E0EEE2
:101F0000F8E09491E82FF0E0EE0FFF1FE95EF74F45
:101F1000A591B491EC91E92321F461E085E30E945D
:101F20003A0561E085E30E9468058CB580618CBD4F
:101F30008CB580648CBD61E084E30E94680561E03B
:101F400083E30E9468058091E6028F5F8093E6023A
:101F50001FBF0E94510887E795E00E946D0C8FE437
:101F600095E00E946D0C86E295E00E946D0C6EE695
:101F70008DE893E00E94FD07182F86EE92E00E9404
:101F8000D306612F70E090E080E040E10E94790C80
:101F90008EED92E0113929F0123909F046C186ED33
:101FA00092E00E94D30611501E3F60F083EA92E057
:101FB0000E946D0C82E892E00E946D0C86E592E032
:101FC0000E946D0C8EEF94E00E946D0C89EE94E0FF
:101FD0000E94D3060E9438081E0101E4200E311C25
:101FE00089E1D1011D928A95E9F740E864E18DE825
:101FF00093E00E941B08A10169E18DE893E00E9433
:10200000CE0741E062E08DE893E00E941B0849E0C2
:102010006CE68DE893E00E941B0840E062E18DE8E9
:1020200093E00E941B0843E062E08DE893E00E9489
:102030001B081FEF64E18DE893E00E94FD078034E8
:1020400010F41150B9F740E062E08DE893E00E948F
:102050001B0820E0AE014F5F5F4F60E48DE893E026
:102060000E94860740E06CE68DE893E00E941B0822
:102070006EE68DE893E00E94FD07803909F412C1F5
:1020800008F0D8C022EC33E0883809F4DAC089E7D8
:1020900094E00E946D0C81E594E00E946D0C87E451
:1020A00094E00E94D3068BE294E00E946D0C82E0E3
:1020B00094E00E946D0C0E945108FE017196E49616
:1020C000FFAFEEAFE4972AE530E02C0F3D1F2A5F0B
:1020D0003F4FEC963FAF2EAFEC97C1010C96EE96BA
:1020E0009FAF8EAFEE978DE893E00E94770A88232A
:1020F00009F422C28DE893E00E943F07582E8823FE
:1021000009F41AC286E892E00E945C0C0E94690CF5
:1021100060919303CE0101960E945C0D6091920341
:10212000C1010E945C0D60919103CE01865A9F4FC0
:102130000E945C0D60919003CE018A599F4F0E94CE
:102140005C0DBE016A597F4FCE01805A9F4F0E949D
:10215000220DCE01805A9F4F0E94FE0CBE01665A8E
:102160007F4F0E94A40D0E94FE0CB1010E94A40D9D
:102170000E94FE0CBE016F5F7F4F0E94A40DBC0148
:10218000CE0184599F4F0E94220DCE01805A9F4F4D
:102190000E94D70DCE018A599F4F0E94D70DCE01C4
:1021A000865A9F4F0E94D70DC1010E94D70DCE01C4
:1021B00001960E94D70D8BED92E00E945C0CE29696
:1021C0004EAD5FADE297AE966EAD7FADAE9780EF50
:1021D00092E00E94F0050E94690CCE0184599F4F45
:1021E0000E94D70D81ED97E00E94D30610E0809108
:1021F0008F03181708F05CC0812F90E0DC01A35713
:10220000BC4F7D0113968C91803108F04EC08EEC4E
:1022100097E00E94D306F701638170E090E080E0D0
:1022200040E10E94790C1F5FE2CF8BEC92E00E94AC
:102230006D0CB9CE813999F122E033E0823909F091
:1022400026CFDE01119690E080E04D91F901E80F74
:10225000F91FE4914E131BCF019680349105A9F725
:1022600060ED77E080E090E00E94BE0582EE94E0B1
:102270000E946D0C8AEB94E00E946D0C80EB94E060
:102280000E94D30668EE73E080E090E00E94BE05F5
:102290008BEA94E00E946D0C82E894E00ACF22E47D
:1022A00033E0CFCF22E833E0CCCF8CEC97E0B1CF56
:1022B0000E94690C81EC97E00E94D30680919A03FA
:1022C000803120F48FEB97E00E94D30660919A034F
:1022D00070E090E080E040E10E94790C0E94690C7F
:1022E000E0919A03EF7710E0E13420F4F0E0EA5F48
:1022F000FD4F108183EB97E00E94D3068AE397E0BD
:102300001530A9F0A8F587E697E0123081F038F48F
:102310008FE897E0113059F08EEB96E008C080E529
:1023200097E0133021F085E497E01430A9F70E947C
:102330006D0CE0919A03EF77E13408F0F9C0F0E01A
:10234000EA5FFD4F9081EFEFE90FE93008F0F0C050
:10235000F0E08827E155FE4E8F4F0C94F814871457
:102360008714D011D011D011FD138714871487144E
:102370008DEF96E01830D9F248F488E197E01630F6
:10238000B1F28CE097E0173091F2C6CF8EEE96E076
:10239000193069F28BEC96E01F3F09F4C8CFBCCF2F
:1023A0008FEF6B968FAF6B976C968FAF6C976D9628
:1023B0008FAF6D976E968FAF6E976F968FAF6F974B
:1023C000A0968FAFA09710E1943021F015E09530E2
:1023D00009F418E281E796E00E946D0C115010326A
:1023E0000CF0ADC0612E660C660CF4E0E696FFAF13
:1023F000E697E6969FACE6979A94752C412C812F30
:10240000012E000C990BAA0BBB0BEA968CAF9DAF6B
:10241000AEAFBFAFEA97992D960DE5969FAFE597C2
:102420008EE596E0772099F08DE696E01A3014F06C
:102430008AE696E00E94D3064AE0EA966CAD7DAD4E
:102440008EAD9FADEA970E94790C86E696E00E94D9
:10245000D306E596AFADE5978AE596E0AA3048F059
:10246000E596BFADE59787E596E0B43610F085E5D3
:1024700096E00E94D306E596EFADE5976E2F70E0EB
:1024800090E080E04AE00E94790C82E596E00E94AC
:10249000D306772009F45EC0E0E6D101EC931196F3
:1024A0006C921197FE01E65AFF4F129681918D931F
:1024B000EC962EAD3FADEC972E173F07B9F7E091A4
:1024C0008F03E150FF0BE357FC4FD1011896819128
:1024D0008D93EE968EAD9FADEE978A179B07B9F759
:1024E0001F92812CB12CA12CD12CC12CF12CE12CD0
:1024F0000CE0910140E16EE08DE893E00E94380924
:10250000082F0F90882331F186E396E00E94D306CE
:10251000802F0E944F070E946D0C115017FF5FCF54
:102520000E94190A48E060E18DE893E00E94630A86
:102530000E94690C0E94190A0E940E07D4CD88E0FF
:10254000810F682E629450EF652200E1E6960FAF8E
:10255000E6974FCF92E1A7969FAFA797A0E3A983F5
:10256000E596BFADE597BA839E012D5F3F4F42E0F0
:10257000BE016F5F7F4F8DE893E00E94EC08082F4B
:10258000811118C0E1E0EF93812CB12CA12C9E01A8
:102590002A593F4F6901CE0101967C0104E09C015C
:1025A00040E36CE08DE893E00E943809082F0F901B
:1025B000882371F08FE196E00E94D306802F0E945D
:1025C0004F070E946D0C9A943FEF931224CFA5CF32
:1025D000DE0111967D0100E0F70181917F018031DC
:1025E00008F0D0C08CE196E00E94D306F701319745
:1025F000608170E090E080E040E10E94790C802FE3
:102600008370833021F488E196E00E94D3060F5F47
:10261000003111F7772009F473C0F8848F2D90E012
:10262000FC0124E0F595E7952A95E1F72985022F2D
:102630000F70D02E30E0D90144E0B595A7954A95AA
:10264000E1F77F81402F50E0672F60956F706E1724
:102650001F06A9F4672F70E004E0759567950A9549
:10266000E1F70FE060276417750749F47F2D709537
:102670007F70772473947A171B0609F4712CBF01BD
:10268000660F771F660F771F64707A01EE0CFF1CD0
:102690007E2D7270672BA1706A2BA1966FAFA197E8
:1026A00025FB662760F90D2D0270602BDF01AA0F54
:1026B000BB1FA4706A2BA2966FAFA29726FB66275A
:1026C00060F9E470E62BBA01759567956270E62BA8
:1026D000A396EFAFA397A5E095958795AA95E1F707
:1026E0008470220F232F221F330B822B5595479581
:1026F000559547954270842BA4968FAFA497472C8D
:10270000E6962FADE697243009F43FC0892D65E0A9
:102710000E94B414833009F46EC0082F282F880F4C
:10272000330B892D092C000C990B019665E070E0A4
:102730000E94C2142617370749F5E0E6F0E0EC0FD7
:10274000FD1FE00FF11D8081813019F0863009F006
:102750004EC0C980DA80EB80FC808CED95E00E9451
:10276000D30640E1C701B6010E94790C84ED95E0E3
:102770000E94D3066D8570E090E080E040E10E9409
:10278000790C35C08AE196E02FCF092D84E196E0DF
:102790000E94D306E0E6F0E0EC0FFD1FE00FF11D14
:1027A000F080F2FA882780F990E00E94BD0C82E167
:1027B00096E00E94D306F1FA882780F990E00E9403
:1027C000BD0C80E196E00E94D3068F2D817090E0D1
:1027D0000E94BD0C8CE096E00E94D306442021F0BC
:1027E00086EE95E00E94D306033009F0A6CF0E9442
:1027F000690C712CE8CE03E0C9CF83EC95E00E9410
:102800006D0C412C512C320190E3992EE2E1D10163
:10281000EC9399824A829E012D5F3F4F42E0BE01B8
:102820006F5F7F4F8DE893E00E94EC08182F8111B5
:1028300015C0F1E0FF93812CB12CA12C61019E0108
:102840002F5F3F4F790104E040E36CE08DE893E0B7
:102850000E943809182F0F90882351F08CEA95E0D8
:102860000E94D306812F0E944F070E946D0C60CEFC
:102870008E010F5F1F4F6301520139E089EA95E035
:102880003A1510F487EA95E00E94D3064AE0C601A3
:10289000B5010E94790C84EA95E00E94D306780184
:1028A00084E0882ED7018D917D01803168F581EA21
:1028B00095E00E94D306F7013197608170E090E0C7
:1028C00080E040E10E94790C8A948110EBCF0E9455
:1028D000690C0C5F1F4FBFEFAB1ABB0ACB0ADB0AB8
:1028E000E496EEADFFADE4970E171F0731F6F4E066
:1028F0004F0E511C611C711C00E140165104610413
:10290000710409F083CF14CE8FE995E0D2CF8BED1F
:1029100097E0ABCFBB27FB015527AA27880F991F4C
:10292000AA1FA41710F0A41B83955051B9F7A05DFE
:10293000AA3308F0A95DA193009779F7B111B1937B
:102940001192CB010C94A414DC01FC01672F71914E
:102950007723E1F7329704C07C916D937083629185
:10296000AE17BF07C8F3089587FB082E062687FD1C
:10297000819567FD61950E9400150EF4919507FC05
:102980008195089597FB072E16F4009407D077FDE4
:1029900009D00E940C1507FC05D03EF49095819556
:1029A0009F4F0895709561957F4F0895A1E21A2E6B
:1029B000AA1BBB1BFD010DC0AA1FBB1FEE1FFF1FE3
:1029C000A217B307E407F50720F0A21BB30BE40B33
:1029D000F50B661F771F881F991F1A9469F760957A
:1029E0007095809590959B01AC01BD01CF01089534
:1029F000EE0FFF1F881F8BBF0790F691E02D1994F3
:102A0000991B79E004C0991F961708F0961B881F40
:102A10007A95C9F780950895AA1BBB1B51E107C0A1
:102A2000AA1FBB1FA617B70710F0A61BB70B881F5E
:102A3000991F5A95A9F780959095BC01CD010895ED
:102A40000F931F93CF93DF938230910510F482E0B0
:102A500090E0E0919F03F091A00330E020E0B0E02F
:102A6000A0E0309799F42115310509F44AC0281BDC
:102A7000390B24303105D8F58A819B8161157105A8
:102A800089F1FB0193838283FE0111C04081518152
:102A90000281138148175907E0F04817590799F444
:102AA000109761F012960C93129713961C9332961E
:102AB000CF01DF91CF911F910F91089500939F0354
:102AC0001093A003F4CF2115310551F0421753079D
:102AD00038F0A901DB019A01BD01DF01F801C1CF86
:102AE000EF01F9CF9093A00380939F03CDCFFE0118
:102AF000E20FF31F81939193225031093983288388
:102B0000D7CF20919D0330919E03232B41F4209138
:102B100002023091030230939E0320939D03209183
:102B20000002309101022115310541F42DB73EB765
:102B30004091040250910502241B350BE0919D0346
:102B4000F0919E03E217F307A0F42E1B3F0B28170A
:102B5000390778F0AC014E5F5F4F2417350748F016
:102B60004E0F5F1F50939E0340939D03819391935B
:102B70009FCFF0E0E0E09CCFCF93DF930097E9F0A8
:102B8000FC01329713821282A0919F03B091A0039F
:102B9000ED0130E020E01097A1F420813181820F17
:102BA000931F20919D0330919E032817390709F048
:102BB00061C0F0939E03E0939D03DF91CF91089550
:102BC000EA01CE17DF07E8F54A815B819E014115D6
:102BD0005105B1F7E901FB83EA8349915991C40F8B
:102BE000D51FEC17FD0761F4808191810296840F57
:102BF000951FE90199838883828193819B838A83CE
:102C0000F0E0E0E012968D919C9113970097B9F552
:102C10002D913C911197CD010296820F931F209127
:102C20009D0330919E032817390739F6309751F5E7
:102C30001092A00310929F03B0939E03A0939D0354
:102C4000BCCFD383C28340815181840F951FC817A5
:102C5000D90761F44E5F5F4F88819981480F591FF2
:102C6000518340838A819B8193838283211531051F
:102C700009F0B0CFF093A003E0939F039ECFFD0136
:102C8000DC01C0CF13821282D7CF4F925F926F9236
:102C90007F928F929F92AF92BF92CF92DF92EF92EC
:102CA000FF920F931F93CF93DF938C01009799F4BA
:102CB000CB01DF91CF911F910F91FF90EF90DF90AB
:102CC000CF90BF90AF909F908F907F906F905F90CC
:102CD0004F900C942015FC01E60FF71F9C01225029
:102CE0003109E217F30708F4AEC0D901CD91DC91A8
:102CF0001197C617D70720F1C530D10578F0CE015E
:102D000004978617970750F0C61BD70B2297C193DD
:102D1000D1936D937C93CF010E94BC15C801DF91C4
:102D2000CF911F910F91FF90EF90DF90CF90BF90C8
:102D3000AF909F908F907F906F905F904F9008958D
:102D40005B01AC1ABD0A4C018C0E9D1EA0919F0325
:102D5000B091A003512C412CF12CE12C109731F5AE
:102D600080919D0390919E038815990509F05CC0A0
:102D70004616570608F058C0809100029091010253
:102D8000009741F48DB79EB740910402509105021F
:102D9000841B950BE817F90708F055C0F0939E03C4
:102DA000E0939D03F90171836083B8CF8D919C916D
:102DB000119712966C90129713967C901397A81502
:102DC000B90559F56C0142E0C40ED11CCA14DB04EC
:102DD00020F1AC014A195B09DA011296159780F0CF
:102DE0006282738251834083D9016D937C93E11495
:102DF000F10471F0D7011396FC93EE9312978ECFE6
:102E000022968C0F9D1FF90191838083F301EFCFF0
:102E1000F093A003E0939F0381CF4816590608F46E
:102E20002C017D01D3019ACFCB010E9420157C019A
:102E3000009749F0AE01B8010E942617C8010E9410
:102E4000BC1587016BCF10E000E068CFFB01DC010F
:102E500002C001900D9241505040D8F70895FB01F7
:102E6000DC0101900D920020E1F70895F894FFCF66
:102E70000000A103800006090000FF000000040319
:102E8000000000000000070700000000000005002F
:102E90000000000000000100000000000000000031
:102EA0000000000000000000000000000000000022
:102EB00000000000000002000000008606F0051D72
:102EC00006EE064E062C06400600000000DA0A77E1
:102ED0000A3F070D0A000A5465726D696E616C2025
:102EE000636F6D6D756E636174696F6E2E2E2E202B
:102EF0005B4F4B5D0A003D3D3D3D3D3D3D3D3D3D14
:102F00003D3D3D3D3D3D3D3D3D3D3D3D3D3D3D3DF1
:102F10002052464944204D4F44554C452044455489
:102F20004543544544203A2044455441494C53209C
:102F30003D3D3D3D3D3D3D3D3D3D3D3D3D3D3D3DC1
:102F40003D3D3D3D3D3D3D3D3D3D005549442074A9
:062F50006167203A200039
:00000001FF
